:020000041000EA
:1010000020050020191000100000000099100010A9
:1010100000040100000000801149124A124B00F048
:1010200018F8124880471249124A134B00F011F881
:101030001249134A134B00F00CF81349134A0020CD
:10104000521A02DD043A8850FCDC114880471148EE
:1010500080479B1A03DD043BC858D050FBDC704727
:10106000D45B00100C0000201C0100209D1000101B
:10107000E45C001020050020980500205C5D001055
:1010800098050020980500209805002024070020DE
:10109000795800105D450010FEE7000080B500AFF4
:1010A00003F0A2F803F0E6F8BD4680BD80B500AFBE
:1010B000124B1A68FF231B0213401A0A104B1A60C6
:1010C0000E4B1B68FF221A400E4B1A600C4B1B681C
:1010D000002B0ED00A4B1B681A020A4B1B68D31850
:1010E0000948191C04F036FB031C5A00074B1A6010
:1010F00002E0064B064A1A60BD4680BD000301406F
:10110000980500209C050020000024F4FC3F0020EE
:101110000048E80190B585B000AFF8607A600B2315
:10112000FB180A1C1A700B23FB181B789B08DBB2F8
:10113000181C0B23FB181B789B08DBB21A1CFB68DE
:1011400004329200D3580B22BA18127803210A40B5
:10115000D200111CF8228A40D2431A40111CFB68AD
:10116000021D9200D150FB685B6F0B22BA181278F7
:101170005200111C03228A40D2431A40FB685A676E
:101180000B23FB181B78DB08DBB2181C0B23FB18A6
:101190001B78DB08DBB21A1CFB6810329200D358B4
:1011A0000B22BA18127807210A409200111C04225F
:1011B0008A40D2431A40111CFB68021C1032920074
:1011C000D1500B23FB181B78DB08DBB2181C0B2358
:1011D000FB181B78DB08DBB21A1CFB68103292008C
:1011E000D2587B685B781C1C0B23FB181B780721EB
:1011F0000B409B009C40231C1A43111CFB68021CE3
:1012000010329200D150FB681D4A93420BD1FB680B
:101210001B6E0B22BA181278012191400A1CD2438E
:101220001A40FB681A667B685A680B23FB181B7808
:101230009A40FB685A600B23FB181B789B08DBB2B3
:10124000181C0B23FB181B789B08DBB21A1CFB68CD
:1012500004329200D2587B681B781C1C0B23FB18AD
:101260001B7803210B40DB009C40231C1A43111CFC
:10127000FB68021D9200D150BD4605B090BDC0462E
:101280000002044080B500AF024BC3225A62BD4643
:1012900080BDC0460000014080B500AF054BC022B4
:1012A0005A62C046034B5B6A04221340FAD1BD4622
:1012B00080BDC0460000014080B582B000AF7860BC
:1012C000FFF7EAFF0C4A0C4B1B680C4919407B687E
:1012D0009B6819437B685B680B431360FFF7D2FF81
:1012E0007B685B781A1C7B681B78101C191C00F04B
:1012F00025F8BD4602B080BD00030140FFFFF0FFAE
:1013000080B582B000AF021CBB1D1A80FFF7C4FF7E
:10131000094B094A1169BA1D12880A431A61C0466D
:10132000054B1A688023DB051340F9D1FFF7AAFFAC
:10133000BD4602B080BDC0460003014080B584B008
:1013400000AF78603960FFF7A7FF214B1A68FF23D1
:101350001B0213401B0AFB601D4B1D4A12681D49EE
:1013600011403A680A431C490A431A60C046184BA8
:101370001A688023DB051340F9D1FA687B689A422A
:1013800006D8FA687B68101C191C00F053F805E0B9
:10139000FA687B68101C191C00F022F80C4B0C4AF0
:1013A00012680E4911407A6812020A430A490A4338
:1013B0001A60C046064B1A688023DB051340F9D13A
:1013C000FFF760FFFFF772FEBD4604B080BDC04668
:1013D0000003014000FF0FC00000F03FFF000FC0FE
:1013E00080B582B000AF7860396014E07B689B08FC
:1013F0007B600D4B0C4A12680C4911407A6812024E
:101400000A430B490A431A60C046074B1A688023F7
:10141000DB051340F9D13B689A007B689A42E5D31B
:10142000BD4602B080BDC04600030140FF000FC0B2
:101430000000F03F80B582B000AF7860396019E0FD
:101440007B68002B01D101237B607B689B007B6064
:101450000C4B0C4A12680C4911407A6812020A437C
:101460000A490A431A60C046064B1A688023DB0506
:101470001340F9D17B689A003B689A42E0D3BD469D
:1014800002B080BD00030140FF000FC00000F03F2C
:1014900080B500AF024B1B68181CBD4680BDC0461E
:1014A000FC3F002080B582B000AF78607B68DB68CD
:1014B000802252001A437B68DA60BD4602B080BDCC
:1014C00080B582B000AF78607B68054A934200D057
:1014D00003E00420FFF714FFC046BD4602B080BD04
:1014E0000000044880B582B000AF78607B68181CAB
:1014F000FFF7E6FFBD4602B080BDC04680B584B0B0
:1015000000AF78600A1CFB1C1A707B68181CFFF780
:10151000E9FF7B68181CFFF7C5FF7B681B68FB6051
:10152000FB68074A1340FB60FB1C1B789B03FA68AF
:101530001343FB607B68FA681A60BD4604B080BD47
:10154000FF3FFFFF80B584B000AF786039607B68F3
:101550001B68FB603B681B0CDA43FB681340FB60B5
:101560003B681B041B0CFA681343FB607B68FA683A
:101570001A60BD4604B080BD80B582B000AF78600F
:1015800039603B681A687B685A613B685B799B06E7
:10159000DB0FDBB21A057B685A603B681B791B07BF
:1015A0001B0FDBB21A1C7B685A623B685B791B0716
:1015B0001B0FDBB21A1C7B681A623B685B79DB0687
:1015C000DB0FDBB21A1C7B689A613B681B791B0638
:1015D0001B0FDBB21A1C7B68DA62BD4602B080BD0D
:1015E00080B584B000AF7860081C111CFB1C021C85
:1015F0001A70BB1C0A1C1A707B685B68BB60BB68F6
:1016000003229343BB60FB1C1B78BA681343BB6087
:101610007B68BA685A607B685B69FB60BB1C1B789F
:10162000012B05D1FB688022D2001343FB6003E04D
:10163000FB68044A1340FB607B68FA685A61BD4648
:1016400004B080BDFFFBFFFF80B584B000AF7860C1
:10165000081C111CFB1C021C1A70BB1C0A1C1A70F3
:101660007B685B68FB60FB680C229343FB60FB1CA0
:101670001B789B00FA681343FB607B68FA685A602A
:101680007B685B69BB60BB68074A1340BB60BB1CDF
:101690001B781B02BA681343BB607B68BA685A6147
:1016A000BD4604B080BDC046FFFCFFFF80B584B0DE
:1016B00000AF78600A1CFB1C1A707B685B68FB60DB
:1016C000FB68074A1340FB60FB1C1B781B03FA688E
:1016D0001343FB607B68FA685A60BD4604B080BD66
:1016E000FFCFFFFF90B585B000AF78600C1C101CD9
:1016F000191CFB1C221C1A70BB1C021C1A707B1CC0
:101700000A1C1A707B685B69FB607B685B68BB6066
:10171000BB68174A1340BB60FB1C1B789B04BA686C
:101720001343BB607B68BA685A60BB1C1B78012BF3
:1017300005D1FB68802252041343FB6003E0FB6881
:101740000C4A1340FB607B1C1B78002B05D0FB6808
:10175000802212041343FB6003E0FB68064A134037
:10176000FB607B68FA685A61BD4605B090BDC04613
:10177000FFFFF3FFFFFFFFFEFFFF7FFF80B584B099
:1017800000AF78600A1CFB1C1A707B685B68FB600A
:10179000FB68074A1340FB60FB1C1B789B03FA683D
:1017A0001343FB607B68FA685A60BD4604B080BD95
:1017B000FF3FFFFF80B584B000AF78600A1CFB1CC0
:1017C0001A707B685B68FB60FB68074A1340FB602C
:1017D000FB1C1B781B02FA681343FB607B68FA68EA
:1017E0005A60BD4604B080BDFFFCFFFF80B584B0E9
:1017F00000AF78600A1CFB1C1A707B685B68FB609A
:10180000FB68074A1340FB60FB1C1B789B02FA68CD
:101810001343FB607B68FA685A60BD4604B080BD24
:10182000FFF3FFFF80B584B000AF78607B685B6832
:10183000FB60FB68064A1340FB60FB688022520293
:101840001343FB607B68FA685A60BD4604B080BDF4
:10185000FFFFFEFF80B584B000AF7860081C111C4C
:10186000FB1C021C1A70BB1C0A1C1A707B685B688C
:10187000BB60BB68174A1340BB60BB688022920202
:101880001343BB607B68BA685A607B685B69FB6026
:10189000BB1C1B78002B05D0FB68802292031343EE
:1018A000FB6003E0FB680C4A1340FB60FB1C1B78E9
:1018B000012B05D1FB688022D2031343FB6003E0B8
:1018C000FB68064A1340FB607B68FA685A61BD46B4
:1018D00004B080BDFFFFFDFFFFFFDFFFFFFFBFFF85
:1018E00080B586B000AFF860B9607A60FB681B68AD
:1018F0007B617B692A4A13407B61BB685B789B04F0
:101900007A6913437B617B69264A13407B617B685C
:101910005B781B057A6913437B617B69224A13401C
:101920007B61BB689B78DB057A6913437B617B69CC
:101930001E4A13407B617B689B781B067A691343C0
:101940007B617B691A4A13407B61BB68DB78DB06ED
:101950007A6913437B617B69164A13407B617B681C
:10196000DB785B077A6913437B617B69F0229343E1
:101970007B61BB681B781B017A6913437B617B69C0
:101980000D4A13407B617B681B781B027A69134305
:101990007B61FB687A691A60BD4606B080BDC046AF
:1019A000FFFFF3FFFFFFCFFFFFFF7FFFFFFFFFFE04
:1019B000FFFFFFE7FFFFFF9FFFF0FFFF80B588B04D
:1019C00000AFF8607A600B23FB180A1C1A701F2303
:1019D000FB180B22BA181278013A1A70FB681B68C0
:1019E000BB611F23FB181B78DB18DAB21723FB1827
:1019F00010321A701723FB181B7803229A40131C0D
:101A0000DA43BB691340BB617B685B781A1C172300
:101A1000FB181B789A40131CBA691343BB61172348
:101A2000FB181F22BA18127816321A701723FB18E7
:101A30001B7801229A40131CDA43BB691340BB6137
:101A40007B689B781A1C1723FB181B789A40131C81
:101A5000BA691343BB611F23FB181B78DB18DAB28A
:101A60001723FB1819321A701723FB181B7803224F
:101A70009A40131CDA43BB691340BB617B68DB7877
:101A80001A1C1723FB181B789A40131CBA691343BE
:101A9000BB611723FB181F22BA18127892001A7024
:101AA0001723FB181B780F229A40131CDA43BB69DB
:101AB0001340BB617B681B781A1C1723FB181B782B
:101AC0009A40131CBA691343BB61FB68BA691A6078
:101AD000BD4608B080BDC04680B586B000AF786016
:101AE000081C111CFB1C021C1A70BB1C0A1C1A705F
:101AF0007B68A8229B58FB60FB1C1B78092B1AD81B
:101B00009A001A4BD3181B689F4603233B6100239E
:101B10007B6116E00C233B6102237B6111E0C02353
:101B20009B003B6108237B610BE0C0231B013B61F1
:101B30000A237B6105E0C0239B013B610C237B6191
:101B4000C0463B69DA43FB681340FB60BB1C1A7854
:101B50007B699A40131CFA681343FB607B68A821D9
:101B6000FA685A50BD4606B080BDC046C458001041
:101B700080B582B000AF7860081C111CFB1C021CF1
:101B80001A70BB1C0A1C1A707B685B6FFA1C1278F7
:101B90005200111C03228A40D2431A407B685A67C4
:101BA0007B685A6FBB1C1B78F91C097849008B4075
:101BB0001A437B685A67BD4602B080BD80B582B0CB
:101BC00000AF78607B689B6BDBB27F229343DBB214
:101BD000181CBD4602B080BD80B582B000AF7860F1
:101BE00039607B68DA6C3B681A437B68DA64BD460F
:101BF00002B080BD80B582B000AF786039607B688C
:101C0000181C00F01BFA7B680E4A5A633B689B88DD
:101C10007A68101C191C00F017F83B681B687A687A
:101C2000101C191C00F038F87B68A022D2009A63BF
:101C30007B6801225242DA647B6800221A64BD4646
:101C400002B080BD03033F0780B582B000AF78606B
:101C50000A1CBB1C1A80BB1C1A88F823DB011A4023
:101C6000F023DB019A420ED1BB1C1B88FF221A40D5
:101C7000BB1C1B885B00191CFE231B020B401A4374
:101C80007B68DA6304E0BB1C1B881A027B68DA639A
:101C9000BD4602B080BDC04680B584B000AF78605C
:101CA00039600F23FB1801221A703B681D4A9342CA
:101CB00013D87B68DB6B1C4A1A407B68DA637A684E
:101CC0003B68101C191C0A2200F0E0F9031E21D108
:101CD0000F23FB1800221A701CE03B68134A934242
:101CE00014D87B68DB6B802292021A437B68DA632C
:101CF0007A683B68101C191C192200F0C7F9031EF2
:101D000008D10F23FB1800221A7003E00F23FB18E1
:101D100001221A700F23FB181B78181CBD4604B053
:101D200080BDC046A0860100FFFFFDFF801A0600AF
:101D300080B584B000AF7860081C111CBB1C021C6D
:101D40001A807B1C0A1C1A70BB1C1B888022D200C4
:101D500013439BB2FB607B1C1B78012B03D1FB68F8
:101D600001221343FB607A6884235B00D258E0238E
:101D7000DB04134013D1C0467B68181CFFF71EFF1D
:101D8000031E802BF8D07A6880239B01101C191C3D
:101D9000FFF722FF7B688021FA685A5004E07A68D6
:101DA000C0235B00F968D150BD4604B080BDC04679
:101DB00080B584B000AF7860081C111CBB1C021CED
:101DC0001A807B1C0A1C1A70BB1C1B88A022D20024
:101DD00013439BB2FB607B1C1B78012B03D1FB6878
:101DE00001221343FB607A6884235B00D258E0230E
:101DF000DB04134013D1C0467B68181CFFF7DEFEDE
:101E0000031E802BF8D07A6880239B01101C191CBC
:101E1000FFF7E2FE7B688021FA685A5004E07A6896
:101E2000C0235B00F968D150BD4604B080BDC046F8
:101E300080B582B000AF78607A6884235B00D258A6
:101E4000E023DB04134014D1C0467B68181CFFF765
:101E5000B5FE031E802BF8D07A6880239B01101CEE
:101E6000191CFFF7B9FE7B688021C022D2005A50AE
:101E700005E07A68C0235B00C021C900D150BD468F
:101E800002B080BD80B582B000AF78600A1CFB1C38
:101E90001A707A6884235B00D258E023DB04134075
:101EA00014D1C0467B68181CFFF788FE031E802BE8
:101EB000F8D07A6880239B01101C191CFFF78CFE58
:101EC000FB1C1A787B6880215A5005E0FB1C1978AE
:101ED0007A68C0235B00D150BD4602B080BDC046C9
:101EE00080B582B000AF78607A6884235B00D258F6
:101EF000E023DB04134014D1C0467B68181CFFF7B5
:101F00005DFE031E802BF8D07A6880239B01101C95
:101F1000191CFFF761FE7B688021802292005A50D5
:101F200005E07A68C0235B0080218900D150BD465E
:101F300002B080BD80B582B000AF78607A6884233B
:101F40005B00D258E023DB04134014D1C0467B6809
:101F5000181CFFF733FE031E802BF8D07A6880230D
:101F60009B01101C191CFFF737FE7B688021C022E3
:101F700092005A5005E07A68C0235B00C0218900B6
:101F8000D150BD4602B080BD80B584B000AF78604E
:101F90007A6886235B00D258E023DB04134005D126
:101FA0007B685A6D0F23FB181A7006E07A688E233F
:101FB0005B00D2580F23FB181A700F23FB181B78F5
:101FC000181CBD4604B080BD80B582B000AF7860FB
:101FD00039607B681A6C3968FE235B020B401A4338
:101FE0007B681A647B68DA6B3B6804490B401A43D0
:101FF0007B68DA63BD4602B080BDC0460000FC418C
:1020000080B582B000AF786039607B681B6C39683E
:10201000FE2252020A40D2431A407B681A647B684F
:10202000DB6B3A6804490A40D2431A407B68DA63A2
:10203000BD4602B080BDC0460000FC4180B582B004
:1020400000AF78607A689023DB059A4203D07B6802
:102050000C4A934203D10C4B181C00F083F97B68A7
:102060000322DA60C0467B68DB6801221340FAD0A5
:102070007B681B6C0F2293431A1C7B681A64BD4655
:1020800002B080BD000200480800004880B58EB054
:1020900000AFF860B9607A60BB68632B5CD97B687D
:1020A000002B59D0FFF7F4F9031C181C642103F02E
:1020B00051FB031C3B62BB68181C642103F04AFB04
:1020C000031CBB600123FB620123BB62284B7B62C4
:1020D000274B3B6324E03B6A3A6B5A43111CBB68B5
:1020E0007A685343081C191C03F034FB031CFB6182
:1020F000FB699B0ABB61FB699B059B0D7B61BB690F
:102100001B4A934209D87A697B6A9A4205D27B6955
:102110007B62BB69BB623B6BFB623B6B013B3B631E
:102120003B6B002BD7D1FB6A802212021A43FB685B
:102130001A61FB685B690F4A1A407B68013B9B028E
:102140001A43BB6A013B1B041A43FB685A613723DD
:10215000FB1800221A7003E03723FB1801221A70C3
:102160003723FB181B78181CBD460EB080BDC04637
:10217000FF030000EF8000FC80B584B000AFF86082
:10218000B9603B60FB1D1A70FA6884235B00D3586A
:102190000E4A1340191CFA6884235B00D150FA6878
:1021A00084235B00D3580A4A1A403B681902BB6873
:1021B0001943FB1D1B781B060B431A43111CFA68BD
:1021C00084235B00D150BD4604B080BDFFFFFFF803
:1021D000C0C0FFF880B584B000AFF860B9603B6064
:1021E000FB1D1A70FA6886235B00D358104A13400F
:1021F000191CFA6886235B00D150FA6886235B00BD
:10220000D3580C4A1A403B681902BB681943FB1D9E
:102210001B781B060B431343802252051A43111CE3
:10222000FA6886235B00D150BD4604B080BDC0462D
:10223000FFFFFFF8C0C0FFEF80B584B000AFF860CB
:102240007A600B23FB180A1C1A70FA6886235B005D
:10225000D3580E4A1340191CFA6886235B00D150EC
:10226000FA6886235B00D358094A1A407B681B0230
:102270001A430B23FB181B781B061A43111CFA6820
:1022800086235B00D150BD4604B080BDFFFFFFF840
:10229000FFC0FFFF80B584B000AFF8607A600B2309
:1022A000FB180A1C1A70FB689B690B22BA1812787B
:1022B000072191400A1CD2431A400B23FB181B78BC
:1022C000796899400B1C1A43FB689A61BD4604B0BB
:1022D00080BDC04680B584B000AFF8607A600B2343
:1022E000FB180A1C1A70FA6884235B00D3580B226F
:1022F000BA181278072191400A1CD2431A400B23C6
:10230000FB181B78796899400B1C1A43111CFA685A
:1023100084235B00D150BD4604B080BD80B584B03D
:1023200000AFF8607A600B23FB180A1C1A70FA6879
:1023300086235B00D3580B22BA18127807219140EC
:102340000A1CD2431A400B23FB181B78796899406A
:102350000B1C1A43111CFA6886235B00D150BD4642
:1023600004B080BD80B582B000AF78607B68044A5D
:10237000934202D10820FEF7C3FFBD4602B080BDE4
:102380000800004880B500AFBD4680BDB0B582B042
:1023900000AF021C3960FB1D1A70FB1D1B787F2BE0
:1023A0002FD92D4CFB1D1B781A1C0F231340083B03
:1023B0009908294AFB1D1B78181C0F230340083B72
:1023C0009B0806339B00D3185B68FA1D1278101C1B
:1023D00003220240D200101CFF228240D2431A4046
:1023E0003B689B01FF200340F81D0078051C03207B
:1023F0002840C00083401A438B1D9B00E3185A609D
:1024000026E0164CFB1D1B785BB29B081349FA1D96
:10241000127852B29208C03292005258F91D0978CF
:10242000081C03210140C900081CFF218140C94349
:1024300011403A689201FF200240F81D0078051C07
:1024400003202840C00082400A43C0339B001A5139
:10245000BD4602B0B0BDC04600ED00E000E100E0C6
:1024600080B582B000AF78607B68013B0C4A934234
:1024700001D9012310E00B4B7A68013A5A6001231D
:102480005B42181C0321FFF781FF064B00229A6074
:10249000044B07221A600023181CBD4602B080BD01
:1024A000FFFFFF0010E000E090B587B000AF78605C
:1024B0000F23FB1800221A706B497A68131CDB008B
:1024C0009B189B00CB1818331B68BB60674B1B68BD
:1024D000002B09D17A68131CDB009B189B00624A11
:1024E0009A18624B1A60BCE0604B1B687B61BB684A
:1024F0003B61AAE07B699B691A1C3B699B1A3B61A3
:102500003B69002B77DC7B695B68002B25D07B69FE
:102510005A6879680B1CDB005B189B0052495B18FA
:1025200013607B69596850487A68131CDB009B185C
:102530009B00C31859604C497A68131CDB009B1838
:102540009B007A695A507A68131CDB009B189B0029
:10255000454A9A187B695A601BE0444B1868424907
:102560007A68131CDB009B189B0058503F4B1A687D
:1025700079680B1CDB005B189B003B495B185360C0
:102580007A68131CDB009B189B00374A9A18374B5C
:102590001A6035497A68131CDB009B189B005B5856
:1025A0009A693B69D11830487A68131CDB009B1884
:1025B0009B00C318183319602B497A68131CDB0081
:1025C0009B189B005A58284879680B1CDB005B1845
:1025D0009B001B589869244C79680B1CDB005B1826
:1025E0009B00E31818331B68C31A93610F23FB1871
:1025F00001221A7026E03B69002B23DD7B691B68F2
:10260000002B1FD118497A68131CDB009B189B0014
:10261000CB187A695A607A68131CDB009B189B0000
:10262000114A9A187B691A6039690F487A68131C35
:10263000DB009B189B00C318183319600F23FB188D
:1026400001221A707B691B687B617B69002B08D0B3
:102650000F23FB181B7801225340DBB2002B00D064
:1026600048E7BD4607B090BDC8050020A005002082
:1026700080B584B000AF78607A68131CDB009B18CB
:102680009B00284A9B18FB60FB685B68002B07D106
:10269000FB681B68002B03D1234B00221A603DE02E
:1026A000FB685B68002B14D1FB681A681E4B1A602C
:1026B0001D4B1B6800225A601B4B1B681A4A12688C
:1026C0009169FA6892698A189A61FB6800221A6017
:1026D00024E0FB681B68002B07D1FB685B680022C5
:1026E0001A60FB6800225A6018E0FB685B68FA68B1
:1026F00012681A60FB681B68FA6852685A60FB68C7
:102700001B68FA6812689169FA6892698A189A6176
:10271000FB6800221A60FB6800225A60BD4604B0C4
:1027200080BDC046C8050020A005002080B582B04D
:1027300000AF2F4B1B687B6050E07B6820229B5CC6
:10274000002B13D07B685B69181CFFF791FF7B6837
:1027500000225A737B685B691A1C01239340DA4399
:10276000244B1B681A40234B1A6034E07B681B7BA8
:10277000002B12D17B685B7B012B2CD17B685B69C2
:10278000181CFFF775FF7B6802225A737B689A68F2
:102790007B681B69181C90471DE07B681B7B012B25
:1027A00018D17B685B7B012B15D17B685B69181C9A
:1027B000FFF75EFF7B68DA697B689A617B685B691B
:1027C000181CFFF771FE7B689A687B681B69181CF0
:1027D000904700E009E0064B1B687B607B68002B9C
:1027E00003D07B689B69002BA7D0BD4602B080BD9B
:1027F000A0050020A405002080B582B000AF0E4BDC
:102800001B687B600D4B1B685A1C0C4B1A607B6865
:10281000002B0ED07B689B69012B05D97B689B69D7
:102820005A1E7B689A6104E07B6800229A61FFF778
:102830007DFFBD4602B080BDA0050020A805002098
:1028400080B584B000AF78600F23FB1800221A70A7
:102850007B681B7801225340DBB2002B20D0144B45
:1028600000221A60FA23DB01181CFFF7F9FD021C95
:102870000F23FB181A700F23FB181B78012B0FD0A6
:1028800001235B42181C0321FFF780FD094B002246
:102890001A607B6801221A700F23FB1800221A703D
:1028A0000F23FB181B78181CBD4604B080BDC04622
:1028B000A0050020A405002080B588B000AFF86016
:1028C0007A603B600B23FB180A1C1A700023FB6123
:1028D0000023BB6100237B61FB68444A934202D81A
:1028E0000023FB617DE00023BB6177E0BB6901222F
:1028F0009A403F4B1B6813406DD1BB6901229A403F
:102900003B4B1B681A433A4B1A603A49BA69131C8D
:10291000DB009B189B00CB181033BA695A6035490D
:10292000BA69131CDB009B189B00CB1808330B22E1
:10293000BA1812781A712F49BA69131CDB009B1858
:102940009B00CB18083302225A71FB68181CFA232B
:10295000990002F0FFFE031C7B617B69591C25482E
:10296000BA69131CDB009B189B00C318183319604D
:102970002049BA69131CDB009B189B00CB18183345
:102980007A695A601B49BA69131CDB009B189B00CB
:10299000CB1808337A681A601649BA69131CDB0031
:1029A0009B189B00CB1810333A681A601149BA691A
:1029B000131CDB009B189B00CB1800225A600D49AA
:1029C000BA69131CDB009B189B0000225A50BB699C
:1029D0000133FB6105E0BB690133BB61BB69072BB8
:1029E00084D9FB69181CBD4608B080BDE703000010
:1029F000A4050020C805002080B584B000AF786031
:102A00000F23FB1801221A707B685A1E1C49131CE5
:102A1000DB009B189B00CB1808335B79022B28D175
:102A20007B685A1E7B68591E15480B1CDB005B181F
:102A30009B00C31818335B68591C1148131CDB003A
:102A40009B189B00C318183319607B685A1E0C49E9
:102A5000131CDB009B189B00CB18083301225A7112
:102A60007B68013B181CFFF71FFD0F23FB1800229A
:102A70001A700F23FB181B78181CBD4604B080BDCC
:102A8000C805002080B582B000AF78600A1CFB1C2E
:102A90001A707B68DA68FB1C1B78012199400B1CBB
:102AA0001A437B68DA60BD4602B080BD80B582B053
:102AB00000AF78600A1CFB1C1A707B689A68FB1CCC
:102AC0001B78012199400B1C1A437B689A60BD4614
:102AD00002B080BD80B582B000AF78607B685B6972
:102AE000802292021A437B685A61BD4602B080BDC3
:102AF00080B582B000AF78607B680122DA60BD46A5
:102B000002B080BD80B582B000AF78607B680122E2
:102B10001A61BD4602B080BD80B582B000AF78605A
:102B20007B6802221A61BD4602B080BD80B582B0CA
:102B300000AF78600A1CBB1C1A80BB1C1A887B681B
:102B40005A63BD4602B080BD80B582B000AF7860E8
:102B50000A1CBB1C1A80BB1C1A887B68DA63BD4642
:102B600002B080BD80B582B000AF786039607B680C
:102B70003A681A61BD4602B080BDC04680B582B0D9
:102B800000AF78600A1CFB1C1A707B68A4229A585C
:102B9000FB1C1B78012199400B1C1A437B68A42164
:102BA0005A50BD4602B080BD90B587B000AF786086
:102BB0001723FB1801221A701623FB1801221A7022
:102BC0007B681B7F002B00D097E07B681B68DB6C69
:102BD0001622BC18181C01F0C7FA031C2370162318
:102BE000FB181B78002B00D083E07B689A687B6819
:102BF0001B689B6B101C191CFEF7BEFC7B689A6857
:102C00007B681B685B88101C191CFFF78FFF7B68B3
:102C10009A687B681B689B88101C191CFFF794FF3F
:102C20007B681B689B6BDB7802221340DBB2002BB6
:102C300008D07B685A687B681B685B6B101C191C8A
:102C4000FEF780FC7B685A687B681B69101C191CA6
:102C5000FFF788FF7B685A687B685B69101C191C4A
:102C6000FFF780FF7B68181C00F0ECF87B68181CED
:102C700000F04EF87B681B683C229B5C002B0ED05A
:102C80007B681B68196C7B681B6844229A5C7B68B4
:102C90001B689B6C081C111C1A1CFEF73BFA7B6816
:102CA0001B68DB6C1B683B617B681B689B6B1B793B
:102CB0001B071B0FDBB2FB60FB683A69DA40131C91
:102CC0003B617B683A691A627B6801221A77172395
:102CD000FB1800221A707B681B681B78002B10D031
:102CE0001723FC187B68181C00F08AF9031C23705A
:102CF00007E07B6800221A7703E01723FB18022203
:102D00001A701723FB181B78181CBD4607B090BD1E
:102D100080B582B000AF78607B681B689B79002B20
:102D20000FD07B689A687B681B685B7B101C002156
:102D30001A1CFEF7D1FE7B689B68181C0021FFF768
:102D40001DFF7B681B68DB79002B0FD07B689A68BE
:102D50007B681B689B7B101C02211A1CFEF7BCFEC3
:102D60007B689B68181C0221FFF708FF7B681B68C3
:102D70001B7A002B0FD07B689A687B681B68DB7B13
:102D8000101C03211A1CFEF7A7FE7B689B68181C09
:102D90000321FFF7F3FE7B681B685B7A002B0FD0E3
:102DA0007B689A687B681B681B7C101C01211A1CBD
:102DB000FEF792FE7B689B68181C0121FFF7DEFE80
:102DC0007B681B689B7A002B0FD07B689A687B68B6
:102DD0001B685B7C101C08211A1CFEF77DFE7B68BB
:102DE0009B68181C0821FFF7C9FE7B681B68DB7A0B
:102DF000002B0FD07B689A687B681B689B7C101C3B
:102E000009211A1CFEF768FE7B689B68181C0921C3
:102E1000FFF7B4FE7B681B681B7B002B0FD07B6821
:102E20009A687B681B68DB7C101C0A211A1CFEF761
:102E300053FE7B689B68181C0A21FFF79FFEBD4666
:102E400002B080BD90B583B000AF78607B689A68AF
:102E50007B681B685B69101C01211A1CFEF7AEFD24
:102E60007B689A687B681B689B69101C02211A1C8E
:102E7000FEF7A4FD7B689A687B681B68DB69101C01
:102E800003211A1CFEF79AFD7B681B6820229B5CBD
:102E9000002B0CD07B6898687B681B682022995CAB
:102EA0007B681B6821229B5C1A1CFEF799FB7B68E0
:102EB0001B6822229B5C002B0CD07B6898687B6887
:102EC0001B682222995C7B681B6823229B5C1A1C6E
:102ED000FEF7BAFB7B681B6824229B5C002B09D0A1
:102EE0007B6899687B681B6824229B5C081C191C02
:102EF000FEF77CFC7B681B6825229B5C002B09D0BD
:102F00007B6899687B681B6825229B5C081C191CE0
:102F1000FEF750FC7B681B6826229B5C002B09D0C7
:102F20007B6899687B681B6826229B5C081C191CBF
:102F3000FEF724FC7B681B6827229B5C002B09D0D2
:102F40007B6899687B681B6827229B5C081C191C9E
:102F5000FEF7ACFB7B681B6828229B5C002B10D023
:102F60007B6898687B681B682822995C7B681B6873
:102F700029229C5C7B681B682A229B5C221CFEF732
:102F8000B1FB7B681B682E229B5C032B17D17B68EF
:102F900098687B681B683022995C7B681B682F22CD
:102FA0009B5C1A1CFEF756FC7B681B682D229B5C01
:102FB000002B04D07B689B68181CFFF78BFD7B6897
:102FC0001B682B229B5C022B17D17B681B682C2271
:102FD0009B5C032B11D17B6899687B681B689A699D
:102FE0007B681B68DB69081C111C1A1CFEF778FC47
:102FF0007B689B68181CFEF715FCBD4603B090BDAE
:1030000080B584B000AF78600F23FB1801221A70DE
:103010007B681B7F012B03D07B681B7F032B19D19F
:103020007B685A687B685B7B101C191CFFF72AFDC4
:103030007B681B6820229B5C002B04D17B689B680B
:10304000181CFFF755FD7B6802221A770F23FB1827
:1030500000221A700F23FB181B78181CBD4604B001
:1030600080BDC04680B584B000AF78600F23FB18E8
:1030700001221A707B681B7F002B18D07B689B682D
:10308000181CFFF73FFD7B689B68181CFFF744FD89
:103090007B685A687B685B7B101C191CFFF706FD78
:1030A0007B6803221A770F23FB1800221A700F2364
:1030B000FB181B78181CBD4604B080BD80B588B0D5
:1030C00000AF786039601F23FB1801221A700023BB
:1030D0007B617B681B7F002B53D03B68002B50D05B
:1030E0007B681B6A7B617869396802F033FB031CDB
:1030F000BB617B681B689B6B1B7801221340DBB2B2
:10310000002B02D0BB695B08BB61BB69002B38D0C8
:10311000BB691F4A934234D87B685B6A3B613B6959
:103120001C4AD31A3B613B69BA6953433B613B6913
:10313000181C184902F00EFB031C3B610E23FB1800
:103140003A691A807B689A68BB699BB2013B9BB263
:10315000101C191CFFF7EAFC7B689A680E23FB1809
:103160001B88101C191CFFF7EFFC7B685A687B68F2
:103170001B69101C191CFFF7F5FC1F23FB1800220C
:103180001A701F23FB181B78181CBD4608B080BDA1
:10319000FFFF00001027000080B582B000AF78600C
:1031A00039607B681B6C3A68D2431A407B681A64AA
:1031B000BD4602B080BDC04680B582B000AF786029
:1031C0007B689B6BDBB27F229343DBB2181CBD464E
:1031D00002B080BD80B582B000AF786039603B68D6
:1031E000802252029A407B689A66BD4602B080BD3A
:1031F00080B582B000AF786039607A6884235B0064
:10320000D2583B681A43111C7A6884235B00D15062
:10321000BD4602B080BDC04680B582B000AF7860C8
:1032200039607A6884235B00D3583A68D2431A40E5
:10323000111C7A6884235B00D150BD4602B080BD6A
:1032400080B582B000AF78607A688A235B00D2587C
:1032500080235B0113405A1E9341DBB2181CBD460C
:1032600002B080BD80B582B000AF78607A688A23F2
:103270005B00D25880231B0113405A1E9341DBB2DE
:10328000181CBD4602B080BD80B582B000AF78602A
:1032900039607A6886235B00D3583A68D2431A4073
:1032A000111C7A6886235B00D150BD4602B080BDF8
:1032B00080B582B000AF78607A688A235B00D3580B
:1032C000082213405A1E9341DBB2181CBD4602B0BF
:1032D00080BDC04680B582B000AF78600A1CFB1C80
:1032E0001A70FB1C1B787A68101C10211A1CFEF740
:1032F000D1FFBD4602B080BD80B582B000AF78601E
:103300007B689B6C181CBD4602B080BD80B582B046
:1033100000AF786039607B68DA6C3B681A437B6881
:10332000DA64BD4602B080BD80B584B000AFF860FD
:10333000B9607A60FB681968BB68DAB27B68081C00
:10334000111C1A1CFEF778FFBD4604B080BDC046B4
:1033500080B582B000AF78607B681B68181CFFF7EF
:103360006FFF031C181CBD4602B080BD80B582B043
:1033700000AF78607B681B68181CFFF799FF031C7F
:10338000181CBD4602B080BD80B582B000AF786029
:103390007B681B68181CFEF7F7FD031C181CBD4654
:1033A00002B080BD80B582B000AF78600A1CFB1C03
:1033B0001A707B681A68FB1C1B78101C191CFEF71E
:1033C00061FDBD4602B080BD80B582B000AF7860BF
:1033D00039607B681A683B68101C191CFEF7F4FD05
:1033E000BD4602B080BDC04680B582B000AF7860F7
:1033F00039607B681A683B68101C191CFEF700FED8
:10340000BD4602B080BDC04680B582B000AF7860D6
:103410007B681B68181CFEF763FDBD4602B080BDCB
:1034200080B582B000AF78607B681B68181CFEF71F
:1034300081FDBD4602B080BD80B582B000AF78602E
:103440007B681B68181CFEF7F3FCBD4602B080BD0C
:1034500080B584B000AFF860B960FB1D1A70FB68DE
:103460001968BB689AB2FB1D1B78081C111C1A1C3A
:10347000FEF75EFCBD4604B080BDC04680B584B09A
:1034800000AFF860B960FB1D1A70FB681968BB6873
:103490009AB2FB1D1B78081C111C1A1CFEF788FC35
:1034A000BD4604B080BDC04680B584B000AF786032
:1034B00039607A683B689A4202D27B68FB6001E01F
:1034C0003B68FB60FB68181CBD4604B080BDC0466D
:1034D00080B584B000AF78607B68002B08D07B6833
:1034E0005B685B6898470F23FB1800221A7003E0A3
:1034F0000F23FB1801221A700F23FB181B78181CCE
:10350000BD4604B080BDC04680B584B000AF7860D1
:1035100039607B681B68181CFFF7EEFE031CFB601C
:10352000FB683A681340181CBD4604B080BDC04615
:1035300080B582B000AF786039607B681A683B68FC
:10354000101C191CFFF7E2FEBD4602B080BDC0464C
:10355000B0B588B002AFF8607A603B600B23FB180F
:103560000A1C1A701723FB1802221A70FB685B688A
:103570001B7F002B12D11723FC18F8680B23FB18B4
:1035800019787A683D68BB6A00932C23FB181B7876
:1035900001932B1C00F0AAF9031C23701723FB18BE
:1035A0001B78181CBD4606B0B0BDC04680B584B0BF
:1035B00000AF78607B689B68BB600F23FB1800221C
:1035C0001A707A68B1235B00101C191CFFF79CFF6E
:1035D000031E14D07B681A688023DB05101C191C9D
:1035E000FFF71AFE7B681A6880239B01101C191CC8
:1035F000FFF7D2FD7B68181C00F074FB12E1BB687A
:103600009B69002B00D083E07B685B689B7F002B6D
:103610005BD0BB68DA68BB689B689A4234D27A6830
:103620008023DB05101C191CFFF7DEFE7B681A687F
:103630008023DB05101C191CFFF7DAFD18E0BB68BE
:10364000DA68BB689B689A4210D2BB681A68BB688C
:10365000DB68D3181B787A68101C191CFFF7A2FED0
:10366000BB68DB685A1CBB68DA6001E0C046D9E081
:103670007B68181CFFF76CFE031C1A1C01235340C7
:10368000DBB2002BDBD1CDE07B681A688023DB0541
:10369000101C191CFFF7C0FDC0467B681B68181C76
:1036A000FFF7E0FD031C1A1C01235340DBB2002B83
:1036B000F3D1BB6828229B5CDBB2002B00D1B1E0C8
:1036C0007B68181C00F0B2F8ACE0BB68DA68BB6835
:1036D0009B689A4210D2BB681A68BB68DB68D31833
:1036E0001B787A68101C191CFFF75CFEBB68DB684E
:1036F0005A1CBB68DA6095E0BB6828229B5CDBB291
:10370000002B00D18EE07B68181C00F08FF889E058
:103710007B685B689B7F002B5CD07B685B68DB7F92
:10372000002B15D07B685B689B7F1A1C012393409C
:103730001A1C7B685B68DB7F191C01238B40101C03
:10374000191CFFF7B1FE021C0F23FB181A7003E0CF
:103750000F23FB1802221A707B681A688023DB058E
:10376000101C191CFFF758FD27E0BB68DA68BB681E
:103770009B689A4220D2BB68DB685A1CBB689B6876
:103780009A4208D1BB681B6A012B04D17B68181CC4
:10379000FFF746FE03E07B68181CFFF735FEBB68A9
:1037A000DB685A1CBB68DA60BB68DA680F23FB1859
:1037B0001B789A4201D30CE00BE07B68181CFFF7E2
:1037C000C7FD031C1A1C01235340DBB2002BCCD1D4
:1037D00019E018E0BB68DB685A1CBB689B689A421A
:1037E00008D1BB681B6A012B04D17B68181CFFF74A
:1037F00017FE03E07B68181CFFF706FEBB68DB685A
:103800005A1CBB68DA607B689B68DA687B689B68D7
:103810009B689A4206D17A688023DB05101C191C2C
:10382000FFF7E2FDBD4604B080BDC04680B584B060
:1038300000AF78607B689B68FB607A688023DB055B
:10384000101C191CFFF7D0FDFB68DB69012B07D1A9
:10385000FB682822002199547B68181CFFF7ECFDB7
:10386000C0467B681B68181CFFF7A6FC031E802B54
:10387000F7D0FB682622002199547B685B689B681F
:10388000002B03D07B685B689B689847BD4604B0FB
:1038900080BDC04680B584B000AFF860B960FB1D44
:1038A0001A70FB689B6828229B5CDBB2002B0AD055
:1038B000BB689BB2191CFA68FB1D1B78101C1A1CF4
:1038C000FFF7DCFD0EE0FB689B682822012199547C
:1038D000BB689BB2191CFA68FB1D1B78101C1A1CD4
:1038E000FFF7B6FDBD4604B080BDC04680B586B0CA
:1038F00000AFF8607A603B600B23FB180A1C1A705B
:103900001723FB1802221A70FB689B683B610B238C
:10391000FB181B7801225340DBB2002B09D0FB6857
:103920009B6828229B5CDBB201225340DBB2002B58
:1039300005D13B68002B02D03B6A002B04D1172332
:10394000FB1801221A7047E03B6900229A613B692B
:1039500026229B5CDBB201225340DBB2002B3BD022
:103960003B693A681A603B693A6A9A603B6900228F
:10397000DA603B692622012199542423FB181A7826
:103980003B69DA61FA688023DB05101C191CFFF71C
:103990001BFDFB6819683B6924229B5C081C191CF1
:1039A000FFF798FC0B23FB181B78002B07D0FA6855
:1039B0007B68101C191C0022FFF76CFF08E0FB68F5
:1039C00019683B6924229B5C081C191CFFF702FC48
:1039D0001723FB1800221A701723FB181B78181CDA
:1039E000BD4606B080BDC04690B585B000AF7860DA
:1039F0007B689B68BB600F23FB1800221A70BB68B2
:103A000027229B5CDBB2002B00D12DE17B685B6839
:103A1000DB7F002B00D1DFE022E0BB685A68BB6887
:103A20005B69D4187B68181CFFF7AEFC031C23707D
:103A3000BB685B695A1CBB685A61BB685A69BB6842
:103A40001B699A420CD1BB682722002199547B68DC
:103A50001A68C023DB05101C191CFFF715FC0AE0CF
:103A60007B68181CFFF782FC031C1A1C01235340BF
:103A7000DBB2002BD1D1BB685A69BB681B699A4283
:103A800000D388E0BB681A69BB685B69D31A7A689F
:103A9000101C191C00F06EF97B685B689B7F002B83
:103AA00015D07B685B689B7F1A1C012393401A1C0E
:103AB0007B685B68DB7F191C01238B40101C191C81
:103AC000FFF7F2FC021C0E23FB181A7003E00E2312
:103AD000FB1802221A707B685B689B7F002B41D029
:103AE00033E0BB68DA68BB689B689A422CD2BB683B
:103AF000DB685A1CBB689B689A4208D1BB681B6A8A
:103B0000012B04D17B68181CFFF78AFC03E07B685B
:103B1000181CFFF779FCBB68DB685A1CBB68DA60CD
:103B20000F23FB180F22BA18127801321A700F23D4
:103B3000FA180E23FB1812781B789A4205D30F232C
:103B4000FB1800221A700CE00BE07B68181CFFF7D2
:103B5000FFFB031C1A1C01235340DBB2002BC0D116
:103B600019E018E0BB68DB685A1CBB689B689A4286
:103B700008D1BB681B6A012B04D17B68181CFFF7B6
:103B80004FFC03E07B68181CFFF73EFCBB68DB685A
:103B90005A1CBB68DA60BB685A69BB681B699A42E9
:103BA00062D17B681A68C023DB05101C191CFFF763
:103BB0006BFB7B681A68C0231B02101C191CFFF7E3
:103BC000EBFABB6828229B5CDBB2002B4CD07B68F5
:103BD000181C00F04DF847E0BB685A68BB685B6989
:103BE000D4187B68181CFFF7CFFB031C2370BB683D
:103BF0005B695A1CBB685A61BB685A69BB681B6920
:103C00009A421FD2BB68DA68BB689B689A422BD283
:103C1000BB68DA68BB689B68013B9A4208D1BB6805
:103C20001B6A012B04D17B68181CFFF7F9FB03E02A
:103C30007B68181CFFF7E8FBBB68DB685A1CBB6895
:103C4000DA6011E07B681A68C0231B02101C191C83
:103C5000FFF7A2FABB6828229B5CDBB2002B03D0E3
:103C60007B68181C00F004F8BD4605B090BDC04646
:103C700080B584B000AF78607B689B68FB60FB68B0
:103C8000DB69012B10D1C0467B681B68181CFFF74D
:103C900093FA031E802BF7D0FB6828220021995449
:103CA0007B68181CFFF7C8FBC0467B681B68181CA4
:103CB000FFF782FA031E802BF7D0FB682722002132
:103CC0009954FB682622002199547B685B68DB6865
:103CD000002B03D07B685B68DB689847BD4604B067
:103CE00080BDC04680B584B000AF78607B681B683B
:103CF000181CFFF701FB031CFB607B685B681B69FA
:103D0000002B0CD0FB682022134008D07B68181CC5
:103D10002021FFF70DFC7B685B681B6998477B6877
:103D20005B685B69002B0CD0FB684022134008D015
:103D30007B68181C4021FFF7FBFB7B685B685B69B5
:103D400098477B685B689B69002B0FD0FA688123DA
:103D50005B0013400AD07A6880235B00101C191C9A
:103D6000FFF7E6FB7B685B689B699847BD4604B03C
:103D700080BDC04680B586B000AF786039607B6892
:103D80005B68DB7F1A1C012393401A1C1623FB1867
:103D90001A707B685B689B7F002B0AD07B685B682E
:103DA0009B7F1A1C012393401A1C1723FB181A70BF
:103DB00003E01723FB1801221A701723FB181A7847
:103DC0001623FB181B78101C191CFFF76DFB031C36
:103DD0003B613A683B69101C191CFFF765FB021C2C
:103DE0000F23FB181A707B685B68DB7F191C0F239D
:103DF000FB181B78013B7A68101C1A1CFFF794FA19
:103E0000BD4606B080BDC04680B582B000AF021C82
:103E1000FB1D1A70064BFA1D1278111C1F220A4056
:103E2000012191400A1C1A60BD4602B080BDC04607
:103E300000E100E0B0B582B000AF021C3960FB1DAC
:103E40001A70FB1D1B787F2B2FD92D4CFB1D1B7867
:103E50001A1C0F231340083B9908294AFB1D1B78A5
:103E6000181C0F230340083B9B0806339B00D31804
:103E70005B68FA1D1278101C03220240D200101C4D
:103E8000FF228240D2431A403B689B01FF2003403F
:103E9000F81D0078051C03202840C00083401A4309
:103EA0008B1D9B00E3185A6026E0164CFB1D1B7807
:103EB0005BB29B081349FA1D127852B29208C032C5
:103EC00092005258F91D0978081C03210140C900CD
:103ED000081CFF218140C94311403A689201FF202C
:103EE0000240F81D0078051C03202840C0008240D5
:103EF0000A43C0339B001A51BD4602B0B0BDC04654
:103F000000ED00E000E100E080B582B000AF786035
:103F1000081C111CFB1C021C1A70BB1C0A1C1A700A
:103F2000FB1C1878FB1C1B787A6806339B00D3189F
:103F30005B68072293431A1CBB1C1B781A437968E1
:103F4000831D9B00CB185A60BD4602B080BDC046A1
:103F500080B582B000AF786039607A6884235B00F6
:103F6000D2583B681A43111C7A6884235B00D150F5
:103F7000BD4602B080BDC04680B582B000AF78605B
:103F800039607A6886235B00D2583B681A43111C5B
:103F90007A6886235B00D150BD4602B080BDC04622
:103FA00080B582B000AF78600A1CFB1C1A707B6879
:103FB0001B6C0F2293431A1CFB1C1B781A437B6853
:103FC0001A64BD4602B080BD80B582B000AF786093
:103FD0007B68181C0421FFF7E3FFBD4602B080BDDB
:103FE00080B586B000AF00237B61C023DB053B6159
:103FF0000823FB1800221A6000225A600823FB18CD
:10400000F8221A700823FB1801225A603B1C002278
:104010001A6000225A603B1CF0221A703B1C0122DD
:104020005A603D4A3D4B101C191CFDF7E3FD3A4B0D
:10403000181C00210522FFF767FF374B181C0121D0
:104040000422FFF761FF344B181C03210022FFF705
:104050005BFF314B181C04210022FFF755FF2E4B4C
:10406000181C05210022FFF74FFF2B4B181C1021B5
:1040700004220123FEF780F8274B181C102102228E
:10408000FEF728F9244A7B69101C191CFFF760FF12
:10409000214B181C002104220F23FEF79BF81E4B16
:1040A000181C10210122FEF739F91B4B181C132193
:1040B0000122FEF733F9184A3B69101C191CFFF75F
:1040C0005BFF154B181C10210022FEF7E3F8124B82
:1040D000181CFFF779FF124A0823FB18101C0A214D
:1040E0001A1CFDF717F80E4A3B1C101C0B211A1C5A
:1040F000FDF710F80B200321FFF79CFE0B20FFF7C4
:1041000083FE0A200321FFF795FE0A20FFF77CFEBD
:10411000BD4606B080BDC046000200485859001098
:104120000002044080B500AF024B181CFFF73EFAB6
:10413000BD4680BD7405002080B500AF024B181C41
:10414000FFF752FCBD4680BD7405002080B582B0EB
:1041500000AF78607B68DB68802252001A437B687E
:10416000DA60BD4602B080BD80B582B000AF786035
:104170007B685B7B01225340DBB2002B0FD07B6856
:104180009A687B681B7B101C191CFDF7B7F97B68CC
:104190009B68181CFFF7DAFF7B6801225A73002323
:1041A000181CBD4602B080BD80B582B000AF7860FB
:1041B0007B6819687B681A7B7B680433081C111CB8
:1041C0001A1CFCF7A7FF7B6819687B681A7B7B6861
:1041D0005B7B081C111C1A1CFDF7CAFC0023181C71
:1041E000BD4602B080BDC04680B500AFBD4680BDB3
:1041F00080B584B000AF78600F23FB1800221A70DE
:104200000E23FB1800221A700D23FB1800221A70CF
:104210000C23FB1800221A700B23FB1800221A70C3
:104220007B681B7801225340DBB2002B1BD00E238E
:10423000FA180D23FB1812781B781343DAB20C23FB
:10424000FB181B781343D9B20F23FB180B22BA18A3
:1042500012780A431A700F23FB181B78002B02D127
:104260007B6801221A700F23FB181B78181CBD46AF
:1042700004B080BD90B585B000AF3B1D044A13CAA1
:1042800013C33B1D181CFDF717F8BD4605B090BDC4
:10429000F059001090B583B000AFFB1D00221A70DA
:1042A000FC1D3D4B181CFFF7A3FF031C2370FB1DD7
:1042B0001B78002B06D1FC1D384B181CFFF708F9A2
:1042C000031C2370FB1D1B78002B06D1FC1D344BF7
:1042D000181CFEF7B5FA031C2370FB1D1B78002B7E
:1042E00006D1FC1D2F4B181CFFF75EFF031C23702B
:1042F000FB1D1B78002B06D1FC1D2B4B181CFFF758
:1043000053FF031C2370FB1D1B78002B06D1FC1DE3
:10431000264B181CFFF748FF031C2370FB1D1B785E
:10432000002B06D1FC1D224B181CFFF73DFF031C80
:104330002370FB1D1B78002B06D1FC1D1D4B181C88
:10434000FFF732FF031C2370FB1D1B78002B06D1E7
:10435000FC1D194B181CFFF727FF031C2370FB1DC6
:104360001B78002B06D1FC1D144B181CFFF71CFFFB
:10437000031C2370FB1D1B78002B06D1FC1D104B6A
:10438000181CFEF711FC031C2370FB1D1B78181C66
:10439000BD4603B090BDC046B005002074050020A6
:1043A000AC0500208059001090590010A059001051
:1043B000B0590010C0590010D0590010E059001039
:1043C0002005002080B582B000AF78600A1CFB1C7D
:1043D0001A70FB1C1B7801229A407B685A60BD460C
:1043E00002B080BD80B582B000AF78600A1CFB1CB3
:1043F0001A70FB1C1B78802252029A407B685A601C
:10440000BD4602B080BDC04680B582B000AF7860C6
:104410000A1CFB1C1A70FB1C1B78034A9A407B6821
:104420005A60BD4602B080BD0100010080B582B077
:1044300000AF78600A1CFB1C1A707B685A6AFB1C70
:104440001B78DA40131C01221340181CBD4602B031
:1044500080BDC04680B582B000AF78600A1CFB1CEE
:104460001A707B681A68FB1C1B78101C191CFDF75E
:1044700009FDBD4602B080BD80B582B000AF786056
:104480007B681B68181CFDF7D3FCBD4602B080BDDD
:1044900080B584B000AFF860B960FB1D1A70FB688E
:1044A0001968BB689AB2FB1D1B78081C111C1A1CEA
:1044B000FDF73EFCBD4604B080BDC04680B582B06D
:1044C00000AF78607B689B6826229B5CDBB2181C7F
:1044D000BD4602B080BDC04680B582B000AF7860F6
:1044E0007B681A687B681B7B101C191CFFF76AFF2E
:1044F000BD4602B080BDC04680B582B000AF7860D6
:104500007B681A687B681B7B101C191CFFF76AFF0D
:10451000BD4602B080BDC04680B582B000AF7860B5
:104520007B681A687B681B7B101C191CFFF76CFFEB
:10453000BD4602B080BDC04680B582B000AF786095
:104540007B681A687B681B7B101C191CFFF76EFFC9
:10455000031C181CBD4602B080BDC04690B585B096
:1045600000AF0923FC18FFF795FE031C23700923F5
:10457000FB181B78002B00D0FEE7012000F056FE50
:10458000FA239A00A14B101C01211A1C0023FEF7EC
:1045900093F9021C9E4B1A609D4B1B68181CFEF77A
:1045A0002BFA9C4B0A221A60C0469A4B1B68002BC0
:1045B000FBD100F025FF00F09FFE964B64221A60AD
:1045C000C046944B1B68002BFBD1002000F02EFE50
:1045D000914B181C0721002200F0A6FF8F4B904A38
:1045E0001A608E4B8F4A5A608C4B8F4A9A608B4B65
:1045F0008E4ADA60894B8E4A1A61884B8D4A5A611D
:104600000023FB6007E08C4AFB68D31800221A7075
:10461000FB680133FB60FB68052BF4DD00F05CFAFE
:104620000A23FB1800221A7000F0F4FDC04600F0C7
:1046300013F9031EFBD1814B01221A70DFE008231E
:10464000FC1800F0DBFA031C23700823FB181B780E
:10465000092B00D0BFE00B23FB1800221A700023A7
:10466000FB600DE0764AFB68D31819780B23FB1822
:104670000B22BA1812788A181A70FB680133FB6093
:10468000704B1B781A1EFB689A42EBDC0B23FB185D
:104690001B78012B1BD10A23FB181B78002B1AD186
:1046A0005C4BFA2292001A60C0465A4B1B68002BE2
:1046B000FBD1012000F0D6FD634B181C092100221C
:1046C00000F032FF0A23FB1801221A7003E00B23CB
:1046D000FB1800221A700023FB600BE0584AFB68AD
:1046E000D31819783A1CFB68D3180A1C1A70FB6897
:1046F0000133FB60534B1B781A1EFB689A42EDDCBA
:104700000A23FB181B78002B01D100F02BFB0023A0
:10471000FB601EE04A4B181C00F0BEFE00F01AFEC3
:104720003C4BC8221A60C0463A4B1B68002BFBD199
:104730003B1C181C00F0B0FE00F00CFE354BC822EC
:104740001A60C046334B1B68002BFBD1FB6801335A
:10475000FB60FB68012BDDDD0B23FB181B78002BB6
:104760004BD10A23FB181B78002B46D10023FB609A
:104770000DE0334AFB68D31819780B23FB180B2282
:10478000BA1812788A181A70FB680133FB602D4B37
:104790001B781A1EFB689A42EBDC0B23FB181B7874
:1047A000012B2AD100F036FD1A4BFA2292001A6032
:1047B000C046184B1B68002BFBD1002000F052FDB7
:1047C000224B181C0721002200F0AEFE0A23FB1822
:1047D00001221A7011E00823FB181B78642B0CD9F6
:1047E0000823FB181B78643BDAB2194B1A70134B81
:1047F00000221A70174B00221A7000F00BFD0F4BAD
:104800001B78002B00D01AE708E7C046BD4800100F
:1048100020070020C4050020005A0010E8060020F0
:104820008059001090590010A0590010B059001084
:10483000C0590010D059001008070020BD05002005
:104840000007002091050020085A0010145A00109B
:1048500090050020BC05002080B582B000AFFB1D94
:1048600000221A70BB1D00221A700EE0BB1D1B78BF
:10487000104AD35C002B03D0FB1D01221A7008E004
:10488000BB1D1A78BB1D01321A70BB1D1B78052B8E
:10489000ECD9FB1D1B78002B06D1074B1B78012B95
:1048A00002D1FB1D01221A70FB1D1B78181CBD468E
:1048B00002B080BD08070020B505002080B582B099
:1048C00000AFFB1D00221A707B1D00221A705A4B8C
:1048D0001B8801339AB2584B1A80584B1B68002B27
:1048E00004D0564B1B685A1E544B1A60544B1B681D
:1048F0005A1E534B1A60524B1B68002B07D1504B6A
:10490000FA2252001A604F4B181CFFF705FE4E4B5F
:104910001B68002B04D04C4B1B685A1E4A4B1A6074
:104920004A4B1B78002B00D074E0BB1D00221A708C
:1049300020E0BB1D1B78464AD35C002B10D1BB1D69
:104940001A78444B9200D358181CFFF7F5FD031E4C
:10495000012B0AD0FB1DBA1D127801321A7004E037
:104960007B1DBA1D127801321A70BB1D1A78BB1D4F
:1049700001321A70BB1D1B78052BDAD9344B5B79D9
:10498000002B0FD0FB1D1B78002B0BD0FB1D1B78C1
:10499000052B07D8304B1B78002B03D02F4BFA1D6B
:1049A00012781A707B1D1B78002B0DD1FB1D1B7814
:1049B000002B09D0FB1D1B78013B254A0121D15456
:1049C000274B00221A6034E07B1D1B78002B30D06F
:1049D000234B1B685A1C224B1A60214B1B683B2B34
:1049E00027D97B1D1B785A1E1A4B9200D358181CCE
:1049F000FFF7A2FD031E012B1BD17B1D1B78013B82
:104A0000134A0021D154164B00221A600F4B012289
:104A10001A700EE0124B1B685A1C114B1A60104B97
:104A20001B683B2B05D9094B00221A700C4B002246
:104A30001A60BD4602B080BD92050020C00500206E
:104A400094050020E0590010C4050020B5050020A1
:104A500008070020E8060020BD050020BC05002056
:104A6000B805002080B582B000AFFB1D00221A708F
:104A700024E0184B1B88DB099AB2164B1B88534065
:104A80009AB2144B1A80134B1B885B029AB2114BDB
:104A90001B889BB253409BB29AB20E4B1A800D4BAF
:104AA0001B885B0B9AB20B4B1B8853409AB2094B85
:104AB0001A80FB1D1A78FB1D01321A70FB1D1B7832
:104AC000072BD6D9034B1B88DBB2181CBD4602B09E
:104AD00080BDC0469205002090B583B000AF434B27
:104AE0001B78052B00D97DE09A00414BD3181B6839
:104AF0009F46404B05221A70FB1D00221A7017E0DA
:104B0000FB1D1C78FFF7AEFF031C1A1C0723134084
:104B1000DAB2394B1A55FB1D1B78374AD25C013289
:104B2000D1B2354AD154FB1D1A78FB1D01321A70DF
:104B3000304B1B78FA1D12789A42E1D352E02D4B8C
:104B400004221A70FB1D00221A7017E0FB1D1C784E
:104B5000FFF788FF031C1A1C07231340DAB2264B09
:104B60001A55FB1D1B78244AD25C0132D1B2224A6D
:104B7000D154FB1D1A78FB1D01321A701D4B1B7896
:104B8000FA1D12789A42E1D32CE01A4B04221A70D3
:104B9000194B0722DA70184B05229A70164B032224
:104BA0005A70154B01221A701CE0124B04221A7025
:104BB000114B0722DA70104B05229A700E4B03221C
:104BC0005A700D4B01221A700CE00A4B03221A7026
:104BD000094B05229A70084B03225A70064B01229A
:104BE0001A70C046BD4603B090BDC0469005002077
:104BF0001C5A0010910500200007002080B584B0E9
:104C000000AF0F23FB1801221A700023BB603BE0AA
:104C1000FB1D00221A7028E0FB1D1B78324AD35C72
:104C2000012B1DD1FB1D1B780133BB60FB1D1B78C5
:104C30002D4A0221D1540F23FB1800221A70FB1DAC
:104C40001B78052B0BD10923BB6004E0274B1B7895
:104C5000002B00D003E0244B5B79022BF6D008E058
:104C6000FB1D1A78FB1D01321A70FB1D1B78052BEA
:104C7000D2D91E4B1B78002B06D01C4B1B786433FB
:104C8000BB601B4B00221A700F23FB181B78002BF4
:104C9000BED1184B1B781A1EBB689A421EDBBB683C
:104CA000002B1BDD124B1B78002B05D0104B1B7803
:104CB0001A1EBB689A4211D1BB68013B0E4AD35CF5
:104CC000002B0BD0BB68013B0B4AD25C013AD1B23E
:104CD000094AD154BB68DAB2054B1A70BB68DBB223
:104CE000181CBD4604B080BD08070020BC0500208C
:104CF000B4050020910500200007002080B584B095
:104D000000AF021CFB1D1A700E23FB1800221A7044
:104D10000F23FB1800221A7017E0FB1D1A780F23CF
:104D2000FB181B781A41131C0122134006D00E23D6
:104D3000FB181A780E23FB1801321A700F23FB1888
:104D40001A780F23FB1801321A700F23FB181B78F7
:104D5000072BE2D90E23FB181B78181CBD4604B0A4
:104D600080BDC04690B58BB000AF2723FB18CC4A5E
:104D700012781A702623FB1800221A701923FB18C8
:104D800000221A702523FB1800221A702423FB1816
:104D900000221A702323FB1800221A701A23FB1812
:104DA00000221A70BF4B00221A700023FB6107E03B
:104DB0003A1CFB69D31800221A70FB690133FB61AE
:104DC000FB69042BF4DD0123FB610DE0B44AFB69B0
:104DD000D31819782723FB182722BA1812784A40CB
:104DE0001A70FB690133FB61AF4B1B781A1EFB691C
:104DF0009A42EBDC2723FB181B78002B00D1E2E161
:104E00000023FB6129E0A64AFB69D3181A782723FF
:104E1000FB181B785340D9B21023FA18FB69D3183A
:104E20000A1C1A701023FA18FB69D3181A789C49C7
:104E3000FB69CB181B789A420CD20122FB699A407D
:104E4000131CDAB22623FB181B781343DAB226238D
:104E5000FB181A70FB690133FB61934B1B781A1E18
:104E6000FB699A42CFDC1923FC182623FB181B7818
:104E7000181CFFF743FF031C23701923FB181B7832
:104E8000002B00D17EE1884B1B78013BFB61D7E012
:104E90002623FB181A78FB691A41131C01221340C0
:104EA00000D1CAE02323FB1800221A701823FB1834
:104EB0001022B918FA698A1812781A701823FB1888
:104EC0001B78012B06D11A23FB181A781A23FB181A
:104ED00001321A701B23FB1800221A7026E01B23D4
:104EE000FB181A78FB699A4219D01B23FB181B7810
:104EF0006B4AD35C012B07D11A23FB181A781A23AB
:104F0000FB1801321A700AE01B23FB181B78644A55
:104F1000D35C012B03D92323FB1801221A701B2316
:104F2000FB181A781B23FB1801321A705E4B1B7892
:104F30001B22BA1812789A42D1D31823FB181B7877
:104F4000012B67D82323FB181B78002B62D11A236F
:104F5000FB181B780122134013D00823FA18FB69B1
:104F6000D3181822BA1812781A703A1CFB69D31891
:104F70001B780A33D9B23A1CFB69D3180A1C1A7081
:104F800047E01823FB181B78012B11D10823FA18CE
:104F9000FB69D31800221A703A1CFB69D3181B78DE
:104FA0000533D9B23A1CFB69D3180A1C1A7030E0D9
:104FB0001823FB181B78002B17D1394AFB69D3182B
:104FC0001B78012B25D90823FA18FB69D318012275
:104FD0001A703A1CFB69D3181B780933D9B23A1CF2
:104FE000FB69D3180A1C1A7027E00823FA18FB691A
:104FF000D3181822BA1812781A703A1CFB69D31801
:105000001B780133D9B23A1CFB69D3180A1C1A70F9
:1050100013E012E00823FA18FB69D3181822BA1813
:1050200012781A703A1CFB69D3181B780933D9B26D
:105030003A1CFB69D3180A1C1A70FB69013BFB611F
:10504000FB69002B00DB23E70023FB6116E03A1C21
:10505000FB69D3181B782522BA1812789A420AD80D
:105060002523FB18391CFA698A1812781A70242330
:10507000FB18FA691A70FB690133FB610A4B1B7854
:105080001A1EFB699A42E2DC084B1B78012B03D005
:10509000064B1B78022B69D10023FB613CE0C04624
:1050A00000070020B4050020910500209005002095
:1050B000564AFB69D3181B78012B2AD9FFF7D2FC7B
:1050C000031EC82B25D9514AFB69D3181B78013B15
:1050D000D9B20823FA18FB69D3180A1C1A702523C1
:1050E000FB181B780133D9B23A1CFB69D3180A1C90
:1050F0001A70FFF7B7FC031E802B0AD93A1CFB6914
:10510000D3181B780133D9B23A1CFB69D3180A1C97
:105110001A70FB690133FB613D4B1B781A1EFB695A
:105120009A42C5DC2523FB1800221A700023FB617C
:1051300016E03A1CFB69D3181B782522BA1812789E
:105140009A420AD82523FB18391CFA698A18127862
:105150001A702423FB18FA691A70FB690133FB618A
:105160002B4B1B781A1EFB699A42E2DC2423FB18A6
:105170001B782422BA18127808217918895C234AEE
:10518000D15440E00023FB6116E0204AFB69D318AC
:105190001B78002B0DD01D4AFB69D3181B78013BEF
:1051A000D9B21A4AFB69D3180A1C1A70184B1B781B
:1051B000FB61FB690133FB61154B1B781A1EFB6910
:1051C0009A42E2DC1FE00023FB6116E00F4AFB6914
:1051D000D3181B78002B0DD00C4AFB69D3181B7811
:1051E000013BD9B2094AFB69D3180A1C1A70084B53
:1051F0001B78FB61FB690133FB61054B1B781A1EB1
:10520000FB699A42E2DCBD460BB090BD000700206E
:105210009105002080B500AF034B181C00F03CF94D
:1052200000F098F8BD4680BD0007002080B582B030
:1052300000AF021CFB1D1A70FB1D1B78002B02D057
:10524000012B05D009E0064B181CFFF755F904E0C7
:10525000034B181CFFF740F9C046BD4602B080BDA5
:10526000E059001080B584B000AF021CFB1D1A701D
:105270001E4B181CFDF7C4FE0023FB602BE0FB1D3A
:105280001B78002B0CD1FB68142252425343184A5E
:1052900094466344154A101C191CFDF70FFF0FE0DC
:1052A000FB1D1B78012B0BD1FA68131C9B009B186C
:1052B0009B00F533FF330D4A101C191CFDF7FEFE51
:1052C0000C4B32221A60C0460A4B1B68002BFBD1E4
:1052D000FB680133FB60FB68312BD0D9034B181CF2
:1052E000FDF7C0FEBD4604B080BDC04620050020CD
:1052F000DC050000C005002090B585B002AFFB1DA5
:1053000000221A701AE0FB1D1A78104BD418104AAC
:105310000123009301230193101C0121E022231C8F
:10532000FEF716F9C0460A4B181CFFF7C7F8031E14
:10533000F9D1FB1D1A78FB1D01321A70FB1D1B7879
:10534000022BE0D9BD4603B090BDC046FC59001009
:105350007405002080B582B000AF264B181CE021F8
:105360000022FFF795F8234B181C0021FFF772F875
:10537000C046204B181CFFF7A1F8031EF9D1FB1DF6
:1053800000221A7022E0FB1D1A781B4B5200D35AE0
:10539000DBB2184A101C191CFFF75CF8C046154B0D
:1053A000181CFFF78BF8031EF9D1124B181C0021B3
:1053B000FFF750F8C0460F4B181CFFF77FF8031E8D
:1053C000F9D1FB1D1A78FB1D01321A70FB1D1B78E9
:1053D000072BD8D9074B181CFFF74EF8074B0A22AA
:1053E0001A60C046054B1B68002BFBD1BD4602B0BE
:1053F00080BDC0467405002010070020C4050020B1
:1054000080B582B000AFFB1D00221A700AE0FB1DC0
:105410001A78084B52000021D152FB1D1A78FB1D4F
:1054200001321A70FB1D1B78072BF0D9BD4602B064
:1054300080BDC0461007002080B582B000AF786004
:1054400039607B680722D31A7B60C0467B680733CC
:105450007B607B680E4A134004D5013B0822524210
:10546000134301337B600B4B3A685200D35A99B215
:1054700001227B689A40131C9BB20A1C13439BB207
:1054800099B2044B3A685200D152BD4602B080BD79
:10549000070000801007002080B584B000AF78605E
:1054A000FFF7AEFF0F23FB1800221A7030E00F2326
:1054B000FB181B787A68D3181B78002B21D00E2399
:1054C000FB1800221A7011E00F23FB181B785A00FA
:1054D0000E23FB181B78101C191CFFF7ADFF0E23C1
:1054E000FB181A780E23FB1801321A700F23FB18D1
:1054F0001B787A68D3181B780E22BA1812789A4251
:10550000E2D30F23FB181A780F23FB1801321A700D
:10551000044B1B780F22BA1812789A42C7D3BD46A3
:1055200004B080BD9105002080B588B000AF7860E0
:10553000081C111CFB1C021C1A70BB1C0A1C1A70D4
:105540001F23FB1801221A701E23FB1800221A7059
:10555000EDE01E23FB181B787A68D2181723FB187E
:1055600012781A701E23FB181B780133DBB21A1C49
:105570007B689A181623FB1812781A701723FB18E9
:105580001B78203B3B613A69131CDB009B1A3B6193
:105590001623FB181B78203BFB60FA68131CDB000A
:1055A0009B1AFB60BB1C1B78002B02D0664B0022B1
:1055B0001A801F23FB181B78002B04D01B23FB1819
:1055C00000221A7003E01B23FB1806221A701D2309
:1055D000FB181B22BA1812781A7097E01C23FB18CC
:1055E00000221A707BE01C23FB181A783B69D31841
:1055F000564AD35C1A1C1D23FB181B7804339A40AF
:105600001823FB181A801D23FB181B78052B16D9AD
:105610001C23FB181A78FB68D3184C4AD35C1A1C5D
:105620001D23FB181B78023B9A40131C9AB21823C7
:10563000FB181B8813439AB21823FB181A801C23EB
:10564000FB181B785A1C1823FB181B881B0A99B2DD
:105650003D4B5200D1521C23FB181B785A1C3A4B6D
:105660005200D35A1A1C0123134021D01C23FB18CB
:105670001B785A1C1C23FB181B78591C324B490001
:10568000CB5A5B0899B2304B5200D1521C23FB1805
:105690001B785A1C1C23FB181B78591C2A4B4900E9
:1056A000CB5A80210B4399B2274B5200D1520FE0C5
:1056B0001C23FB181B785A1C1C23FB181B78591C35
:1056C000214B4900CB5A5B0899B21F4B5200D15273
:1056D0001C23FB181A781C23FB1801321A701C2398
:1056E000FB181B78062B00D87DE7FFF733FE184B1D
:1056F00046221A60C046164B1B68002BFBD11D23A7
:10570000FB181A781D23FB1801321A701D23FB1891
:105710001B780A2B00D861E71F23FB1800221A70A0
:105720001E23FB181A781E23FB1801321A701E2341
:10573000FB181A78FB1C1B78013B9A4200DA08E739
:10574000BD4608B080BDC04610070020345A001086
:10575000C4050020002243088B4274D303098B4206
:105760005FD3030A8B4244D3030B8B4228D3030C31
:105770008B420DD3FF22090212BA030C8B4202D3D3
:105780001212090265D0030B8B4219D300E0090AFB
:10579000C30B8B4201D3CB03C01A5241830B8B4204
:1057A00001D38B03C01A5241430B8B4201D34B03ED
:1057B000C01A5241030B8B4201D30B03C01A524152
:1057C000C30A8B4201D3CB02C01A5241830A8B42D7
:1057D00001D38B02C01A5241430A8B4201D34B02C0
:1057E000C01A5241030A8B4201D30B02C01A524124
:1057F000CDD2C3098B4201D3CB01C01A52418309D8
:105800008B4201D38B01C01A524143098B4201D311
:105810004B01C01A524103098B4201D30B01C01A3C
:105820005241C3088B4201D3CB00C01A52418308B6
:105830008B4201D38B00C01A524143088B4201D3E3
:105840004B00C01A5241411A00D201465241104643
:105850007047FFE701B5002000F00CF802BDC0461C
:105860000029F7D003B5FFF775FF0EBC4243891A34
:105870001847C0467047C0460E4B70B500251E1C29
:105880000D4CE41AA410A54204D0AB00F35898477D
:105890000135F8E7FCF776FD084B00251E1C084C87
:1058A000E41AA410A54204D0AB00F3589847013580
:1058B000F8E770BD980500209805002098050020A5
:1058C000980500200A1B00100A1B0010141B001072
:1058D000141B0010361B0010361B0010361B001066
:1058E000361B00101E1B00102A1B001000000000B9
:1058F00001000000000001000000010000000100A4
:10590000A00000000000010000008BFDC67E00002A
:10591000000000000000000000000000F45800102B
:10592000F8580010FC5800100000000000000000B3
:105930000000000000000001000000000000000462
:10594000EC580010010000000000044005000000B9
:105950000059001080050020A08601000000000012
:1059600058590010E13F0010000000000000000046
:10597000000000000000000000000000000004041F
:1059800000000440100000000000000006000000BD
:1059900000000440100000000000000007000000AC
:1059A000000004401000000000000000080000009B
:1059B000000004401000000000000000090000008A
:1059C0000002044010000000000000000000000081
:1059D000000204401000000000000000060000006B
:1059E00000010440800000000000010001000000F0
:1059F0000001000000000100000000002181EF0014
:105A000048454C4C4F202000594F552057494E20B7
:105A1000200000004C4F534552202000E44B001062
:105A2000CA4B0010AA4B00108A4B00103E4B0010CE
:105A3000F24A00100000000000000004000404040A
:105A40000404000000000A0A0A0A0A1F0A1F0A0AC0
:105A5000041E050E140F04031308040219180D1276
:105A6000150814120C0000000000040402030808CA
:105A7000080402080402020204080004150E1504BA
:105A8000000004041F04040008040C0000000000CF
:105A900000001F0000000C0C0000000000001008B7
:105AA000040201000E11111111110E0E0404040460
:105AB0000C041F10080601110E0E11010601110E33
:105AC00002021F120A06020E1101011E101F0E1102
:105AD000111E1008060808080402011F0E11110EFD
:105AE00011110E0C02010F11110E000C0C000C0C08
:105AF0000008040C000C0C0002040810080402004A
:105B0000001F001F00000804020102040804000432
:105B10000201110E0E15150D01110E11111F11119B
:105B20000A041E09090E09091E0E11101010110E8B
:105B30001E09090909091E1F10101E10101F101040
:105B4000101E10101F0F11111310110E1111111F23
:105B50001111110E04040404040E0C1202020202BC
:105B600007111214181412111F1010101010101118
:105B7000111115151B11111113151911110E1111F8
:105B80001111110E1010101E11111E0D12151111F0
:105B9000110E1112141E11111E0E11010E10110EF4
:105BA0000404040404041F0E111111111111040A3C
:105BB00011111111110A15151511111111110A04E4
:105BC0000A11110404040A1111111F100804020122
:045BD0001F000000B2
:105BD4002C48874600000000000000000000000080
:105BE40000000000000000000000000000000000B1
:105BF400254887460000000000000000234887462F
:105C040023488746234887462348874623488746B0
:105C140023488746234887462348874623488746A0
:105C24000000000000000000214887462148874604
:105C34002148874621488746214887462148874688
:105C440021488746214887460000000000000000E4
:105C540000000000000000001D4887461D488746DC
:105C64001D4887461D4887460000000000000000CC
:105C74000000000000000000000000000000000020
:105C840000000000991000109910001099100010E5
:105C9400F9270010991000109910001099100010A5
:105CA400991000109910001099100010991000100C
:105CB400991000103941001025410010991000106E
:105CC40099100010991000109910001099100010EC
:105CD40099100010991000109910001099100010DC
:105CE40008590010000004480001044800000000A6
:105CF4000100000002000000040000000000000099
:105D040000000000881300000000000000000000F4
:105D1400000000000000000000000000000000007F
:105D2400000000000000000000000000020100006C
:105D340000000000000200486059001048050020DF
:105D44000090D0030100000000000448000000009F
:085D540002040100F40100004B
:0400000510001019BE
:00000001FF
